{
  "contractName": "ChessGame",
  "abi": [
    {
      "inputs": [],
      "stateMutability": "nonpayable",
      "type": "constructor"
    },
    {
      "inputs": [],
      "name": "entryFee",
      "outputs": [
        {
          "internalType": "uint256",
          "name": "",
          "type": "uint256"
        }
      ],
      "stateMutability": "view",
      "type": "function",
      "constant": true
    },
    {
      "inputs": [],
      "name": "gameFinished",
      "outputs": [
        {
          "internalType": "bool",
          "name": "",
          "type": "bool"
        }
      ],
      "stateMutability": "view",
      "type": "function",
      "constant": true
    },
    {
      "inputs": [],
      "name": "owner",
      "outputs": [
        {
          "internalType": "address payable",
          "name": "",
          "type": "address"
        }
      ],
      "stateMutability": "view",
      "type": "function",
      "constant": true
    },
    {
      "inputs": [],
      "name": "player1",
      "outputs": [
        {
          "internalType": "address",
          "name": "",
          "type": "address"
        }
      ],
      "stateMutability": "view",
      "type": "function",
      "constant": true
    },
    {
      "inputs": [],
      "name": "player2",
      "outputs": [
        {
          "internalType": "address",
          "name": "",
          "type": "address"
        }
      ],
      "stateMutability": "view",
      "type": "function",
      "constant": true
    },
    {
      "inputs": [],
      "name": "totalPrize",
      "outputs": [
        {
          "internalType": "uint256",
          "name": "",
          "type": "uint256"
        }
      ],
      "stateMutability": "view",
      "type": "function",
      "constant": true
    },
    {
      "inputs": [],
      "name": "enterGame",
      "outputs": [],
      "stateMutability": "payable",
      "type": "function",
      "payable": true
    },
    {
      "inputs": [],
      "name": "makeMove",
      "outputs": [],
      "stateMutability": "payable",
      "type": "function",
      "payable": true
    },
    {
      "inputs": [],
      "name": "withdrawFunds",
      "outputs": [],
      "stateMutability": "nonpayable",
      "type": "function"
    }
  ],
  "bytecode": "0x608060405234801561001057600080fd5b50600080546001600160a01b03191633179055670de0b6b3a76400006002556107558061003e6000396000f3fe6080604052600436106100865760003560e01c806359a5f12d1161005957806359a5f12d146100dd57806382b1ad50146100ff5780638da5cb5b14610114578063d30895e414610129578063f0f324971461013e57610086565b8063072ea61c1461008b578063218bd577146100b657806324600fc3146100c0578063387a6d6f146100d5575b600080fd5b34801561009757600080fd5b506100a0610160565b6040516100ad91906106cb565b60405180910390f35b6100be610166565b005b3480156100cc57600080fd5b506100be610261565b6100be6102f3565b3480156100e957600080fd5b506100f2610397565b6040516100ad9190610548565b34801561010b57600080fd5b506100a06103a6565b34801561012057600080fd5b506100f26103ac565b34801561013557600080fd5b506100f26103bb565b34801561014a57600080fd5b506101536103ca565b6040516100ad919061055c565b60025481565b600454600160a01b900460ff16156101995760405162461bcd60e51b815260040161019090610591565b60405180910390fd5b60025434146101ba5760405162461bcd60e51b815260040161019090610627565b6003546001600160a01b031615806101db57506004546001600160a01b0316155b6101f75760405162461bcd60e51b815260040161019090610567565b6003546001600160a01b031661021e57600380546001600160a01b03191633179055610231565b600480546001600160a01b031916331790555b6003546001600160a01b03161580159061025557506004546001600160a01b031615155b1561025f57476001555b565b6000546001600160a01b0316331461028b5760405162461bcd60e51b815260040161019090610652565b600454600160a01b900460ff166102b45760405162461bcd60e51b8152600401610190906105c8565b6000805460405147926001600160a01b039092169183156108fc02918491818181858888f193505050501580156102ef573d6000803e3d6000fd5b5050565b600454600160a01b900460ff161561031d5760405162461bcd60e51b815260040161019090610591565b6003546001600160a01b031633148061034057506004546001600160a01b031633145b61035c5760405162461bcd60e51b8152600401610190906105ff565b600254341461037d5760405162461bcd60e51b8152600401610190906106a1565b600454600160a01b900460ff161561025f5761025f6103da565b6004546001600160a01b031681565b60015481565b6000546001600160a01b031681565b6003546001600160a01b031681565b600454600160a01b900460ff1681565b600454600160a01b900460ff16156104045760405162461bcd60e51b815260040161019090610591565b6003546000906001600160a01b0316158061042c57506004546001600160a01b038281169116145b156105325760006064600154604661044491906106f4565b61044e91906106d4565b905060006064600154601461046391906106f4565b61046d91906106d4565b905060006064600154600a61048291906106f4565b61048c91906106d4565b6040519091506001600160a01b0385169084156108fc029085906000818181858888f193505050501580156104c5573d6000803e3d6000fd5b50600080546040516001600160a01b039091169184156108fc02918591818181858888f193505050501580156104ff573d6000803e3d6000fd5b50604051309082156108fc029083906000818181858888f1935050505015801561052d573d6000803e3d6000fd5b505050505b506004805460ff60a01b1916600160a01b179055565b6001600160a01b0391909116815260200190565b901515815260200190565b60208082526010908201526f151a194819d85b59481a5cc8199d5b1b60821b604082015260600190565b6020808252601d908201527f5468652067616d652068617320616c72656164792066696e6973686564000000604082015260600190565b6020808252601d908201527f5468652067616d6520686173206e6f742066696e697368656420796574000000604082015260600190565b6020808252600e908201526d24b73b30b634b210383630bcb2b960911b604082015260600190565b602080825260119082015270496e76616c696420656e7472792066656560781b604082015260600190565b6020808252602f908201527f4f6e6c792074686520636f6e7472616374206f776e65722063616e207065726660408201526e37b936903a3434b99030b1ba34b7b760891b606082015260800190565b60208082526010908201526f496e76616c6964206d6f76652066656560801b604082015260600190565b90815260200190565b6000826106ef57634e487b7160e01b81526012600452602481fd5b500490565b600081600019048311821515161561071a57634e487b7160e01b81526011600452602481fd5b50029056fea2646970667358221220664dc685278b827ec47662fcb90835cc9889337c73f277de8cf0cd515b079ae964736f6c63430008000033",
  "immutableReferences": {},
  "source": "// SPDX-License-Identifier: MIT\npragma solidity ^0.8.0;\n\ncontract ChessGame {\n    address payable public owner;\n    uint256 public totalPrize;\n    uint256 public entryFee;\n    address public player1;\n    address public player2;\n    bool public gameFinished;\n    \n    constructor() {\n        owner = payable(msg.sender);\n        entryFee = 1 ether; // Adjust the entry fee as desired\n    }\n    \n    modifier onlyOwner() {\n        require(msg.sender == owner, \"Only the contract owner can perform this action\");\n        _;\n    }\n    \n    modifier gameNotFinished() {\n        require(!gameFinished, \"The game has already finished\");\n        _;\n    }\n    \n    function enterGame() external payable gameNotFinished {\n        require(msg.value == entryFee, \"Invalid entry fee\");\n        require(player1 == address(0) || player2 == address(0), \"The game is full\");\n        \n        if (player1 == address(0)) {\n            player1 = msg.sender;\n        } else {\n            player2 = msg.sender;\n        }\n        \n        if (player1 != address(0) && player2 != address(0)) {\n            totalPrize = address(this).balance;\n        }\n    }\n    \n    function makeMove() external payable gameNotFinished {\n        require(msg.sender == player1 || msg.sender == player2, \"Invalid player\");\n        require(msg.value == entryFee, \"Invalid move fee\");\n        // Add logic for handling the chess move\n        \n        if (gameFinished) {\n            distributePrize();\n        }\n    }\n    \n\n    function distributePrize() internal gameNotFinished {\n        address payable winner;\n\n        // Add logic to determine the winner based on the chess game outcome\n\n        if (winner == player1 || winner == player2) {\n            uint256 prizeAmount = (totalPrize * 70) / 100;\n            uint256 ownerAmount = (totalPrize * 20) / 100;\n            uint256 contractAmount = (totalPrize * 10) / 100;\n\n            payable(winner).transfer(prizeAmount);\n            owner.transfer(ownerAmount);\n            payable(address(this)).transfer(contractAmount); // Convert to `payable` here\n        }\n\n        gameFinished = true;\n    }\n\n    \n    function withdrawFunds() external onlyOwner {\n        require(gameFinished, \"The game has not finished yet\");\n        uint256 remainingBalance = address(this).balance;\n        payable(owner).transfer(remainingBalance);\n    }\n}\n",
  "sourcePath": "/Users/bilaldastagir/Documents/ws/cDApp/contracts/cdapp.sol",
  "compiler": {
    "name": "solc",
    "version": "0.8.0+commit.c7dfd78e.Emscripten.clang"
  },
  "schemaVersion": "3.4.7",
  "updatedAt": "2023-06-01T14:04:20.138Z",
  "networkType": "ethereum",
  "devdoc": {
    "kind": "dev",
    "methods": {},
    "version": 1
  },
  "userdoc": {
    "kind": "user",
    "methods": {},
    "version": 1
  }
}